{
  "_format": "hh-sol-artifact-1",
  "contractName": "DealClient",
  "sourceName": "contracts/basic-deal-client/DealClient.sol",
  "abi": [
    {
      "inputs": [],
      "stateMutability": "nonpayable",
      "type": "constructor"
    },
    {
      "inputs": [
        {
          "internalType": "int256",
          "name": "errorCode",
          "type": "int256"
        }
      ],
      "name": "ActorError",
      "type": "error"
    },
    {
      "inputs": [],
      "name": "FailToCallActor",
      "type": "error"
    },
    {
      "inputs": [
        {
          "internalType": "uint64",
          "name": "",
          "type": "uint64"
        }
      ],
      "name": "InvalidCodec",
      "type": "error"
    },
    {
      "inputs": [],
      "name": "InvalidResponseLength",
      "type": "error"
    },
    {
      "inputs": [
        {
          "internalType": "uint256",
          "name": "balance",
          "type": "uint256"
        },
        {
          "internalType": "uint256",
          "name": "value",
          "type": "uint256"
        }
      ],
      "name": "NotEnoughBalance",
      "type": "error"
    },
    {
      "anonymous": false,
      "inputs": [
        {
          "indexed": true,
          "internalType": "bytes32",
          "name": "id",
          "type": "bytes32"
        },
        {
          "indexed": false,
          "internalType": "uint64",
          "name": "size",
          "type": "uint64"
        },
        {
          "indexed": true,
          "internalType": "bool",
          "name": "verified",
          "type": "bool"
        },
        {
          "indexed": false,
          "internalType": "uint256",
          "name": "price",
          "type": "uint256"
        }
      ],
      "name": "DealProposalCreate",
      "type": "event"
    },
    {
      "anonymous": false,
      "inputs": [
        {
          "indexed": false,
          "internalType": "string",
          "name": "received",
          "type": "string"
        }
      ],
      "name": "ReceivedDataCap",
      "type": "event"
    },
    {
      "inputs": [],
      "name": "AUTHENTICATE_MESSAGE_METHOD_NUM",
      "outputs": [
        {
          "internalType": "uint64",
          "name": "",
          "type": "uint64"
        }
      ],
      "stateMutability": "view",
      "type": "function"
    },
    {
      "inputs": [],
      "name": "DATACAP_RECEIVER_HOOK_METHOD_NUM",
      "outputs": [
        {
          "internalType": "uint64",
          "name": "",
          "type": "uint64"
        }
      ],
      "stateMutability": "view",
      "type": "function"
    },
    {
      "inputs": [],
      "name": "MARKET_NOTIFY_DEAL_METHOD_NUM",
      "outputs": [
        {
          "internalType": "uint64",
          "name": "",
          "type": "uint64"
        }
      ],
      "stateMutability": "view",
      "type": "function"
    },
    {
      "inputs": [
        {
          "components": [
            {
              "internalType": "bytes",
              "name": "data",
              "type": "bytes"
            }
          ],
          "internalType": "struct CommonTypes.FilAddress",
          "name": "client",
          "type": "tuple"
        },
        {
          "internalType": "uint256",
          "name": "value",
          "type": "uint256"
        }
      ],
      "name": "addBalance",
      "outputs": [],
      "stateMutability": "nonpayable",
      "type": "function"
    },
    {
      "inputs": [
        {
          "internalType": "bytes32",
          "name": "",
          "type": "bytes32"
        }
      ],
      "name": "dealProposals",
      "outputs": [
        {
          "internalType": "uint256",
          "name": "idx",
          "type": "uint256"
        },
        {
          "internalType": "bool",
          "name": "valid",
          "type": "bool"
        }
      ],
      "stateMutability": "view",
      "type": "function"
    },
    {
      "inputs": [
        {
          "internalType": "bytes32",
          "name": "proposalId",
          "type": "bytes32"
        }
      ],
      "name": "getDealProposal",
      "outputs": [
        {
          "internalType": "bytes",
          "name": "",
          "type": "bytes"
        }
      ],
      "stateMutability": "view",
      "type": "function"
    },
    {
      "inputs": [
        {
          "internalType": "bytes32",
          "name": "proposalId",
          "type": "bytes32"
        }
      ],
      "name": "getExtraParams",
      "outputs": [
        {
          "internalType": "bytes",
          "name": "extra_params",
          "type": "bytes"
        }
      ],
      "stateMutability": "view",
      "type": "function"
    },
    {
      "inputs": [
        {
          "internalType": "uint64",
          "name": "method",
          "type": "uint64"
        },
        {
          "internalType": "uint64",
          "name": "",
          "type": "uint64"
        },
        {
          "internalType": "bytes",
          "name": "params",
          "type": "bytes"
        }
      ],
      "name": "handle_filecoin_method",
      "outputs": [
        {
          "internalType": "uint32",
          "name": "",
          "type": "uint32"
        },
        {
          "internalType": "uint64",
          "name": "",
          "type": "uint64"
        },
        {
          "internalType": "bytes",
          "name": "",
          "type": "bytes"
        }
      ],
      "stateMutability": "nonpayable",
      "type": "function"
    },
    {
      "inputs": [
        {
          "components": [
            {
              "internalType": "bytes",
              "name": "piece_cid",
              "type": "bytes"
            },
            {
              "internalType": "uint64",
              "name": "piece_size",
              "type": "uint64"
            },
            {
              "internalType": "bool",
              "name": "verified_deal",
              "type": "bool"
            },
            {
              "internalType": "string",
              "name": "label",
              "type": "string"
            },
            {
              "internalType": "int64",
              "name": "start_epoch",
              "type": "int64"
            },
            {
              "internalType": "int64",
              "name": "end_epoch",
              "type": "int64"
            },
            {
              "internalType": "uint256",
              "name": "storage_price_per_epoch",
              "type": "uint256"
            },
            {
              "internalType": "uint256",
              "name": "provider_collateral",
              "type": "uint256"
            },
            {
              "internalType": "uint256",
              "name": "client_collateral",
              "type": "uint256"
            },
            {
              "internalType": "uint64",
              "name": "extra_params_version",
              "type": "uint64"
            },
            {
              "components": [
                {
                  "internalType": "string",
                  "name": "location_ref",
                  "type": "string"
                },
                {
                  "internalType": "uint64",
                  "name": "car_size",
                  "type": "uint64"
                },
                {
                  "internalType": "bool",
                  "name": "skip_ipni_announce",
                  "type": "bool"
                },
                {
                  "internalType": "bool",
                  "name": "remove_unsealed_copy",
                  "type": "bool"
                }
              ],
              "internalType": "struct ExtraParamsV1",
              "name": "extra_params",
              "type": "tuple"
            }
          ],
          "internalType": "struct DealRequest",
          "name": "deal",
          "type": "tuple"
        }
      ],
      "name": "makeDealProposal",
      "outputs": [
        {
          "internalType": "bytes32",
          "name": "",
          "type": "bytes32"
        }
      ],
      "stateMutability": "nonpayable",
      "type": "function"
    },
    {
      "inputs": [],
      "name": "owner",
      "outputs": [
        {
          "internalType": "address",
          "name": "",
          "type": "address"
        }
      ],
      "stateMutability": "view",
      "type": "function"
    },
    {
      "inputs": [
        {
          "internalType": "bytes",
          "name": "",
          "type": "bytes"
        }
      ],
      "name": "pieceDeals",
      "outputs": [
        {
          "internalType": "uint64",
          "name": "",
          "type": "uint64"
        }
      ],
      "stateMutability": "view",
      "type": "function"
    },
    {
      "inputs": [
        {
          "internalType": "bytes",
          "name": "",
          "type": "bytes"
        }
      ],
      "name": "pieceProviders",
      "outputs": [
        {
          "internalType": "bytes",
          "name": "provider",
          "type": "bytes"
        },
        {
          "internalType": "bool",
          "name": "valid",
          "type": "bool"
        }
      ],
      "stateMutability": "view",
      "type": "function"
    },
    {
      "inputs": [
        {
          "internalType": "bytes",
          "name": "",
          "type": "bytes"
        }
      ],
      "name": "pieceToProposal",
      "outputs": [
        {
          "internalType": "bytes32",
          "name": "proposalId",
          "type": "bytes32"
        },
        {
          "internalType": "bool",
          "name": "valid",
          "type": "bool"
        }
      ],
      "stateMutability": "view",
      "type": "function"
    },
    {
      "inputs": [
        {
          "components": [
            {
              "internalType": "bytes",
              "name": "data",
              "type": "bytes"
            }
          ],
          "internalType": "struct CommonTypes.FilAddress",
          "name": "client",
          "type": "tuple"
        },
        {
          "internalType": "uint256",
          "name": "value",
          "type": "uint256"
        }
      ],
      "name": "withdrawBalance",
      "outputs": [
        {
          "internalType": "uint256",
          "name": "",
          "type": "uint256"
        }
      ],
      "stateMutability": "nonpayable",
      "type": "function"
    }
  ],
  "bytecode": "0x608060405234801561001057600080fd5b5033600560006101000a81548173ffffffffffffffffffffffffffffffffffffffff021916908373ffffffffffffffffffffffffffffffffffffffff16021790555061596580620000626000396000f3fe608060405234801561001057600080fd5b50600436106100e95760003560e01c80638da5cb5b1161008c578063dd08881c11610066578063dd08881c14610275578063dd27fe90146102a6578063f4b2e4d8146102d6578063f82704f014610306576100e9565b80638da5cb5b1461021d5780639f1a1fb31461023b578063b34ba25214610257576100e9565b80634634aed5116100c85780634634aed51461016c5780636067f4541461019c57806374112d66146101ba578063868e10c4146101eb576100e9565b8062706790146100ee5780630a0e0c911461010c5780632b2a8abb1461013c575b600080fd5b6100f6610337565b60405161010391906136fd565b60405180910390f35b61012660048036038101906101219190613872565b61033f565b60405161013391906136fd565b60405180910390f35b61015660048036038101906101519190613953565b61037c565b60405161016391906139be565b60405180910390f35b61018660048036038101906101819190613a0f565b610419565b6040516101939190613abb565b60405180910390f35b6101a461043e565b6040516101b191906136fd565b60405180910390f35b6101d460048036038101906101cf9190613a0f565b610446565b6040516101e2929190613af8565b60405180910390f35b61020560048036038101906102009190613b4d565b610477565b60405161021493929190613bdb565b60405180910390f35b61022561058a565b6040516102329190613c5a565b60405180910390f35b61025560048036038101906102509190613953565b6105b0565b005b61025f610618565b60405161026c91906136fd565b60405180910390f35b61028f600480360381019061028a9190613872565b610620565b60405161029d929190613c84565b60405180910390f35b6102c060048036038101906102bb9190613cd2565b610667565b6040516102cd9190613d1b565b60405180910390f35b6102f060048036038101906102eb9190613a0f565b61086f565b6040516102fd9190613abb565b60405180910390f35b610320600480360381019061031b9190613872565b61098a565b60405161032e929190613d36565b60405180910390f35b639d8b067881565b6003818051602081018201805184825260208301602085012081835280955050505050506000915054906101000a900467ffffffffffffffff1681565b6000600560009054906101000a900473ffffffffffffffffffffffffffffffffffffffff1673ffffffffffffffffffffffffffffffffffffffff163373ffffffffffffffffffffffffffffffffffffffff16146103d857600080fd5b600060405180604001604052808581526020016103f485610a59565b8152509050600061040482610a9d565b905061040f81610add565b9250505092915050565b6060600061042683610b13565b9050610436816101400151610ee8565b915050919050565b63f98c996681565b60006020528060005260406000206000915090508060000154908060010160009054906101000a900460ff16905082565b6000806060806000639d8b067867ffffffffffffffff168867ffffffffffffffff16036104de576104a786610f79565b60006104b36001611089565b90506104c96001826110b090919063ffffffff16565b6104d2816110cc565b92506051915050610575565b63f98c996667ffffffffffffffff168867ffffffffffffffff160361050b5761050686611125565b610574565b63de180de367ffffffffffffffff168867ffffffffffffffff16036105385761053386611305565b610573565b6040517f08c379a000000000000000000000000000000000000000000000000000000000815260040161056a90613de9565b60405180910390fd5b5b5b60008183945094509450505093509350939050565b600560009054906101000a900473ffffffffffffffffffffffffffffffffffffffff1681565b600560009054906101000a900473ffffffffffffffffffffffffffffffffffffffff1673ffffffffffffffffffffffffffffffffffffffff163373ffffffffffffffffffffffffffffffffffffffff161461060a57600080fd5b610614828261133d565b5050565b63de180de381565b6001818051602081018201805184825260208301602085012081835280955050505050506000915090508060000154908060010160009054906101000a900460ff16905082565b6000600560009054906101000a900473ffffffffffffffffffffffffffffffffffffffff1673ffffffffffffffffffffffffffffffffffffffff163373ffffffffffffffffffffffffffffffffffffffff16146106c357600080fd5b6000600480549050905060048390806001815401808255809150506001900390600052602060002090600a02016000909190919091508181610705919061483e565b5050600042338360405160200161071e939291906148b5565b6040516020818303038152906040528051906020012090506040518060400160405280838152602001600115158152506000808381526020019081526020016000206000820151816000015560208201518160010160006101000a81548160ff02191690831515021790555090505060405180604001604052808281526020016001151581525060018580600001906107b79190613e18565b6040516107c5929190614922565b90815260200160405180910390206000820151816000015560208201518160010160006101000a81548160ff0219169083151502179055509050508360400160208101906108139190614950565b1515817ffd6419d07e4c269e58d0c63969756c2124155b4a8d6dd08b8cd46e3a9acbf62586602001602081019061084a919061497d565b8760c0013560405161085d9291906149aa565b60405180910390a38092505050919050565b6060600061087c83610b13565b90506108866134bb565b6040518060200160405280836000015181525081600001819052508160200151816020019067ffffffffffffffff16908167ffffffffffffffff168152505081604001518160400190151590811515815250506108e2306113a4565b81606001819052506108f460006113e1565b816080018190525081606001518160a0018190525081608001518160c0019060070b908160070b815250508160a001518160e0019060070b908160070b815250506109428260c00151610a59565b8161010001819052506109588260e00151610a59565b81610120018190525061096f826101000151610a59565b81610140018190525061098181611430565b92505050919050565b6002818051602081018201805184825260208301602085012081835280955050505050506000915090508060000180546109c390613eb5565b80601f01602080910402602001604051908101604052809291908181526020018280546109ef90613eb5565b8015610a3c5780601f10610a1157610100808354040283529160200191610a3c565b820191906000526020600020905b815481529060010190602001808311610a1f57829003601f168201915b5050505050908060010160009054906101000a900460ff16905082565b610a6161354b565b6000610a6e8360006115a8565b905060006040518060400160405280836000015181526020018360200151151581525090508092505050919050565b610aa561354b565b6000610ab0836115e3565b90506000610ac960056387ed0a64605185600080611652565b9050610ad4816117a7565b92505050919050565b600080610af283600001518460200151611863565b905060008160000151610b04906149f8565b60001c90508092505050919050565b610b1b613567565b6000806000848152602001908152602001600020604051806040016040529081600082015481526020016001820160009054906101000a900460ff16151515158152505090508060200151610ba5576040517f08c379a0000000000000000000000000000000000000000000000000000000008152600401610b9c90614aab565b60405180910390fd5b6004816000015181548110610bbd57610bbc614acb565b5b90600052602060002090600a020160405180610160016040529081600082018054610be790613eb5565b80601f0160208091040260200160405190810160405280929190818152602001828054610c1390613eb5565b8015610c605780601f10610c3557610100808354040283529160200191610c60565b820191906000526020600020905b815481529060010190602001808311610c4357829003601f168201915b505050505081526020016001820160009054906101000a900467ffffffffffffffff1667ffffffffffffffff1667ffffffffffffffff1681526020016001820160089054906101000a900460ff16151515158152602001600282018054610cc690613eb5565b80601f0160208091040260200160405190810160405280929190818152602001828054610cf290613eb5565b8015610d3f5780601f10610d1457610100808354040283529160200191610d3f565b820191906000526020600020905b815481529060010190602001808311610d2257829003601f168201915b505050505081526020016003820160009054906101000a900460070b60070b60070b81526020016003820160089054906101000a900460070b60070b60070b81526020016004820154815260200160058201548152602001600682015481526020016007820160009054906101000a900467ffffffffffffffff1667ffffffffffffffff1667ffffffffffffffff16815260200160088201604051806080016040529081600082018054610df290613eb5565b80601f0160208091040260200160405190810160405280929190818152602001828054610e1e90613eb5565b8015610e6b5780601f10610e4057610100808354040283529160200191610e6b565b820191906000526020600020905b815481529060010190602001808311610e4e57829003601f168201915b505050505081526020016001820160009054906101000a900467ffffffffffffffff1667ffffffffffffffff1667ffffffffffffffff1681526020016001820160089054906101000a900460ff161515151581526020016001820160099054906101000a900460ff16151515158152505081525050915050919050565b60606000610ef66040611089565b9050610f0c60048261187f90919063ffffffff16565b610f2383600001518261188f90919063ffffffff16565b610f3a8360200151826118b890919063ffffffff16565b610f518360400151826110b090919063ffffffff16565b610f688360600151826110b090919063ffffffff16565b610f71816110cc565b915050919050565b6000610f84826118c8565b90506000610f958260200151611944565b90506001816000015160000151604051610faf9190614b2b565b908152602001604051809103902060010160009054906101000a900460ff1661100d576040517f08c379a000000000000000000000000000000000000000000000000000000000815260040161100490614bb4565b60405180910390fd5b60028160000151600001516040516110259190614b2b565b908152602001604051809103902060010160009054906101000a900460ff1615611084576040517f08c379a000000000000000000000000000000000000000000000000000000000815260040161107b90614c46565b60405180910390fd5b505050565b6110916135e3565b61109f816000015183611c8b565b506000816020018181525050919050565b6110c882826110c05760146110c3565b60155b611d04565b5050565b60606000826020015114611115576040517f08c379a000000000000000000000000000000000000000000000000000000000815260040161110c90614cb2565b60405180910390fd5b8160000151600001519050919050565b600061113082611d2a565b905060006111418260000151611944565b9050600181600001516000015160405161115b9190614b2b565b908152602001604051809103902060010160009054906101000a900460ff166111b9576040517f08c379a00000000000000000000000000000000000000000000000000000000081526004016111b090614bb4565b60405180910390fd5b60028160000151600001516040516111d19190614b2b565b908152602001604051809103902060010160009054906101000a900460ff1615611230576040517f08c379a000000000000000000000000000000000000000000000000000000000815260040161122790614c46565b60405180910390fd5b604051806040016040528082608001516000015181526020016001151581525060028260000151600001516040516112689190614b2b565b9081526020016040518091039020600082015181600001908161128b9190614cd2565b5060208201518160010160006101000a81548160ff021916908315150217905550905050816020015160038260000151600001516040516112cc9190614b2b565b908152602001604051809103902060006101000a81548167ffffffffffffffff021916908367ffffffffffffffff160217905550505050565b7f10aa319ed8cad9bceb033c0c2788c4ae17469ac844e4c6e2c2e20e74ca8a7be860405161133290614df0565b60405180910390a150565b600061134883611dbb565b905060006113616005633105f1a6605185876000611652565b9050600081511461139e576040517f0e74990700000000000000000000000000000000000000000000000000000000815260040160405180910390fd5b50505050565b6113ac613603565b6040518060200160405280836040516020016113c89190614e67565b6040516020818303038152906040528152509050919050565b6113e9613603565b60006113f483611df3565b9050604051806020016040528082600001516040516020016114169190614eb9565b604051602081830303815290604052815250915050919050565b6060600061143e6040611089565b9050611454600b8261187f90919063ffffffff16565b61148e8360000151600001516040516020016114709190614ee2565b60405160208183030381529060405282611e7890919063ffffffff16565b6114a58360200151826118b890919063ffffffff16565b6114bc8360400151826110b090919063ffffffff16565b6114d783606001516000015182611ecb90919063ffffffff16565b6114f283608001516000015182611ecb90919063ffffffff16565b6115098360a001518261188f90919063ffffffff16565b6115208360c0015182611ef490919063ffffffff16565b6115378360e0015182611ef490919063ffffffff16565b611557611548846101000151611f4c565b82611ecb90919063ffffffff16565b611577611568846101200151611f4c565b82611ecb90919063ffffffff16565b611597611588846101400151611f4c565b82611ecb90919063ffffffff16565b6115a0816110cc565b915050919050565b6115b0613616565b6115db836040516020016115c49190614f08565b6040516020818303038152906040528360006120b9565b905092915050565b606060006115f16040611089565b905061160760028261187f90919063ffffffff16565b61162283600001516000015182611ecb90919063ffffffff16565b6116416116328460200151611f4c565b82611ecb90919063ffffffff16565b61164a816110cc565b915050919050565b60606000479050838110156116a05780846040517f8f0f4206000000000000000000000000000000000000000000000000000000008152600401611697929190614f23565b60405180910390fd5b60008073fe0000000000000000000000000000000000000573ffffffffffffffffffffffffffffffffffffffff168987876116dc5760006116df565b60015b8b8b8f6040516020016116f796959493929190614f5b565b6040516020818303038152906040526040516117139190614b2b565b600060405180830381855af49150503d806000811461174e576040519150601f19603f3d011682016040523d82523d6000602084013e611753565b606091505b50915091508161178f576040517f8a7db5bf00000000000000000000000000000000000000000000000000000000815260040160405180910390fd5b61179881612186565b93505050509695505050505050565b6117af61354b565b6060600080845111156117f4576117cf818561230d90919063ffffffff16565b80925081935050506000825111156117f3576117ea826124e9565b9250505061185e565b5b6040518060400160405280600067ffffffffffffffff81111561181a57611819613747565b5b6040519080825280601f01601f19166020018201604052801561184c5781602001600182028036833780820191505090505b50815260200160001515815250925050505b919050565b61186b613616565b611877838360006120b9565b905092915050565b61188b82600483612690565b5050565b61189c82600383516126a0565b6118b381836000015161284990919063ffffffff16565b505050565b6118c4826000836126a0565b5050565b6118d0613639565b6000806118e6828561286590919063ffffffff16565b8093508192505050600281146118ff576118fe614fc3565b5b611912828561230d90919063ffffffff16565b846000018194508290525050611931828561230d90919063ffffffff16565b8460200181945082905250505050919050565b61194c6134bb565b600080611962828561286590919063ffffffff16565b8093508192505050600b811461197b5761197a614fc3565b5b6060611990838661230d90919063ffffffff16565b8094508192505050600060f81b816000815181106119b1576119b0614acb565b5b602001015160f81c60f81b7effffffffffffffffffffffffffffffffffffffffffffffffffffffffffffff1916146119ec576119eb614fc3565b5b600181516119fa9190615021565b67ffffffffffffffff811115611a1357611a12613747565b5b6040519080825280601f01601f191660200182016040528015611a455781602001600182028036833780820191505090505b508460000151600001819052506000600190505b8151811015611ae957818181518110611a7557611a74614acb565b5b602001015160f81c60f81b856000015160000151600183611a969190615021565b81518110611aa757611aa6614acb565b5b60200101907effffffffffffffffffffffffffffffffffffffffffffffffffffffffffffff1916908160001a9053508080611ae190615055565b915050611a59565b50611afd83866128e690919063ffffffff16565b856020018195508267ffffffffffffffff1667ffffffffffffffff168152505050611b31838661296790919063ffffffff16565b8560400181955082151515158152505050611b55838661230d90919063ffffffff16565b85606001516000018195508290525050611b78838661230d90919063ffffffff16565b85608001516000018195508290525050611b9b8386612a1190919063ffffffff16565b8560a0018195508290525050611bba8386612b9390919063ffffffff16565b8560c0018195508260070b60070b8152505050611be08386612b9390919063ffffffff16565b8560e0018195508260070b60070b81525050506060611c08848761230d90919063ffffffff16565b8095508192505050611c19816124e9565b8561010001819052506060611c37858861230d90919063ffffffff16565b8096508192505050611c48816124e9565b8661012001819052506060611c66868961230d90919063ffffffff16565b8097508192505050611c77816124e9565b876101400181905250505050505050919050565b611c93613653565b6000602083611ca291906150cc565b14611cce57602082611cb491906150cc565b6020611cc09190615021565b82611ccb91906150fd565b91505b818360200181815250506040518084526000815282810160200181811015611cf557600080fd5b80604052505082905092915050565b611d25816005600760ff16901b178360000151612c2590919063ffffffff16565b505050565b611d3261366d565b600080611d48828561286590919063ffffffff16565b809350819250505060028114611d6157611d60614fc3565b5b611d74828561230d90919063ffffffff16565b846000018194508290525050611d9382856128e690919063ffffffff16565b846020018194508267ffffffffffffffff1667ffffffffffffffff1681525050505050919050565b60606000611dc96040611089565b9050611de2836000015182611ecb90919063ffffffff16565b611deb816110cc565b915050919050565b611dfb613653565b611e03613653565b5b600115611e71576000607f8416905060078467ffffffffffffffff16901c935060008467ffffffffffffffff1603611e5457611e498183612c2590919063ffffffff16565b508192505050611e73565b611e6a6080821783612c2590919063ffffffff16565b5050611e04565b505b919050565b611e9a60186005600660ff16901b178360000151612c2590919063ffffffff16565b50611eb3602a8360000151612c2590919063ffffffff16565b50611ec78183611ecb90919063ffffffff16565b5050565b611ed882600283516126a0565b611eef81836000015161284990919063ffffffff16565b505050565b60008160070b12611f1057611f0b826000836126a0565b611f48565b611f47826001837fffffffffffffffffffffffffffffffffffffffffffffffffffffffffffffffff611f429190615131565b6126a0565b5b5050565b606060006001836000015151611f6291906150fd565b67ffffffffffffffff811115611f7b57611f7a613747565b5b6040519080825280601f01601f191660200182016040528015611fad5781602001600182028036833780820191505090505b509050600115158360200151151514611fca57600060f81b611fd0565b600160f81b5b81600081518110611fe457611fe3614acb565b5b60200101907effffffffffffffffffffffffffffffffffffffffffffffffffffffffffffff1916908160001a90535060006001905060005b8460000151518110156120ae57846000015181815181106120405761203f614acb565b5b602001015160f81c60f81b83838151811061205e5761205d614acb565b5b60200101907effffffffffffffffffffffffffffffffffffffffffffffffffffffffffffff1916908160001a905350818061209890615055565b92505080806120a690615055565b91505061201c565b508192505050919050565b6120c1613616565b60208401845160005960006020840614600181146120f3576020840660200360208184010193508085018352506120fd565b6020820192508382525b508282848660046101c2fa506020815101810160405280515b60006020821403612149576000602083015114600181146121375750612149565b60208301925050602081039050612116565b8082528186528760208701525050505050600082146121685781612176565b6121758160000151612c8f565b5b8160400181815250509392505050565b60606000806000848060200190518101906121a1919061524c565b925092509250600067ffffffffffffffff168267ffffffffffffffff16036122035760008151146121fe576040517f0e74990700000000000000000000000000000000000000000000000000000000815260040160405180910390fd5b6122bd565b605167ffffffffffffffff168267ffffffffffffffff16148061223a5750607167ffffffffffffffff168267ffffffffffffffff16145b1561227f57600081510361227a576040517f0e74990700000000000000000000000000000000000000000000000000000000815260040160405180910390fd5b6122bc565b816040517ff1f6bced0000000000000000000000000000000000000000000000000000000081526004016122b391906136fd565b60405180910390fd5b5b6000831461230257826040517fd4bb66710000000000000000000000000000000000000000000000000000000081526004016122f991906152ca565b60405180910390fd5b809350505050919050565b6060600080600061231e8686612ccf565b8167ffffffffffffffff169150809750819350829450505050600660ff168260ff1614806123525750600260ff168260ff16145b612391576040517f08c379a000000000000000000000000000000000000000000000000000000000815260040161238890615357565b60405180910390fd5b600660ff168260ff16036123da576123a98686612ccf565b8167ffffffffffffffff169150809750819350829450505050600260ff168260ff16146123d9576123d8614fc3565b5b5b600081866123e891906150fd565b905060008267ffffffffffffffff81111561240657612405613747565b5b6040519080825280601f01601f1916602001820160405280156124385781602001600182028036833780820191505090505b5090506000808890505b838110156124cb5789818151811061245d5761245c614acb565b5b602001015160f81c60f81b83838151811061247b5761247a614acb565b5b60200101907effffffffffffffffffffffffffffffffffffffffffffffffffffffffffffff1916908160001a90535081806124b590615055565b92505080806124c390615055565b915050612442565b508184896124d991906150fd565b9650965050505050509250929050565b6124f161354b565b600082510361252f5760405180604001604052806040518060400160405280600181526020016000815250815260200160001515815250905061268b565b60006001835161253f9190615021565b67ffffffffffffffff81111561255857612557613747565b5b6040519080825280601f01601f19166020018201604052801561258a5781602001600182028036833780820191505090505b5090506000600160f81b846000815181106125a8576125a7614acb565b5b602001015160f81c60f81b7effffffffffffffffffffffffffffffffffffffffffffffffffffffffffffff1916036125df57600190505b6000600190505b845181101561266e5784818151811061260257612601614acb565b5b602001015160f81c60f81b8360018361261b9190615021565b8151811061262c5761262b614acb565b5b60200101907effffffffffffffffffffffffffffffffffffffffffffffffffffffffffffff1916908160001a905350808061266690615055565b9150506125e6565b506040518060400160405280838152602001821515815250925050505b919050565b61269b8383836126a0565b505050565b60178167ffffffffffffffff16116126db576126d58160058460ff16901b60ff16178460000151612c2590919063ffffffff16565b50612844565b60ff8167ffffffffffffffff16116127395761270e601860058460ff16901b178460000151612c2590919063ffffffff16565b506127338167ffffffffffffffff1660018560000151612ec19092919063ffffffff16565b50612843565b61ffff8167ffffffffffffffff16116127985761276d601960058460ff16901b178460000151612c2590919063ffffffff16565b506127928167ffffffffffffffff1660028560000151612ec19092919063ffffffff16565b50612842565b63ffffffff8167ffffffffffffffff16116127f9576127ce601a60058460ff16901b178460000151612c2590919063ffffffff16565b506127f38167ffffffffffffffff1660048560000151612ec19092919063ffffffff16565b50612841565b61281a601b60058460ff16901b178460000151612c2590919063ffffffff16565b5061283f8167ffffffffffffffff1660088560000151612ec19092919063ffffffff16565b505b5b5b5b505050565b612851613653565b61285d83838451612f4e565b905092915050565b6000806000806128758686612ccf565b8167ffffffffffffffff169150809750819350829450505050600460ff168260ff16146128d7576040517f08c379a00000000000000000000000000000000000000000000000000000000081526004016128ce906153c3565b60405180910390fd5b80859350935050509250929050565b6000806000806128f68686612ccf565b8167ffffffffffffffff169150809750819350829450505050600060ff168260ff1614612958576040517f08c379a000000000000000000000000000000000000000000000000000000000815260040161294f90615455565b60405180910390fd5b80859350935050509250929050565b6000806000806129778686612ccf565b8167ffffffffffffffff169150809750819350829450505050600760ff168260ff16146129d9576040517f08c379a00000000000000000000000000000000000000000000000000000000081526004016129d0906154c1565b60405180910390fd5b601560ff168114806129ee5750601460ff1681145b6129fb576129fa614fc3565b5b601460ff16811415859350935050509250929050565b60606000806000612a228686612ccf565b8167ffffffffffffffff169150809750819350829450505050600360ff168260ff1614612a84576040517f08c379a0000000000000000000000000000000000000000000000000000000008152600401612a7b90615553565b60405180910390fd5b60008186612a9291906150fd565b905060008267ffffffffffffffff811115612ab057612aaf613747565b5b6040519080825280601f01601f191660200182016040528015612ae25781602001600182028036833780820191505090505b5090506000808890505b83811015612b7557898181518110612b0757612b06614acb565b5b602001015160f81c60f81b838381518110612b2557612b24614acb565b5b60200101907effffffffffffffffffffffffffffffffffffffffffffffffffffffffffffff1916908160001a9053508180612b5f90615055565b9250508080612b6d90615055565b915050612aec565b50818489612b8391906150fd565b9650965050505050509250929050565b600080600080612ba38686612ccf565b8167ffffffffffffffff169150809750819350829450505050600160ff168260ff161480612bd75750600060ff168260ff16145b612c16576040517f08c379a0000000000000000000000000000000000000000000000000000000008152600401612c0d906155e5565b60405180910390fd5b80859350935050509250929050565b612c2d613653565b600083600001515190506000600182612c4691906150fd565b905084602001518210612c6a57612c6985600283612c649190615605565b613031565b5b84516020838201018581538151831115612c82578282525b5050849250505092915050565b6000612c9a82613055565b15612ca85760009050612cca565b600060208301519050612cba816130ac565b9150600860208451030282019150505b919050565b600080600080612cdf8686613302565b9050600185612cee91906150fd565b94506000600560e0831660ff16901c90506000601f83169050601c8160ff1610612d4d576040517f08c379a0000000000000000000000000000000000000000000000000000000008152600401612d44906156b9565b60405180910390fd5b60188160ff161015612d70578181888160ff169150955095509550505050612eba565b60188160ff1603612df7576000612d878989613302565b9050600188612d9691906150fd565b975060188160ff161015612ddf576040517f08c379a0000000000000000000000000000000000000000000000000000000008152600401612dd690615725565b60405180910390fd5b8281898160ff16915096509650965050505050612eba565b60198160ff1603612e38576000612e0e898961337d565b9050600288612e1d91906150fd565b97508281898161ffff16915096509650965050505050612eba565b601a8160ff1603612e7b576000612e4f89896133e7565b9050600488612e5e91906150fd565b97508281898163ffffffff16915096509650965050505050612eba565b601b8160ff1614612e8f57612e8e614fc3565b5b6000612e9b8989613451565b9050600888612eaa91906150fd565b9750828189965096509650505050505b9250925092565b612ec9613653565b6000846000015151905060008184612ee191906150fd565b90508560200151811115612f0657612f0586600283612f009190615605565b613031565b5b6000600185610100612f189190615878565b612f229190615021565b905086518281018783198251161781528151841115612f3f578382525b50508693505050509392505050565b612f56613653565b8251821115612f6457600080fd5b6000846000015151905060008382612f7c91906150fd565b90508560200151811115612fa157612fa086600283612f9b9190615605565b613031565b5b60008087518051856020830101935080851115612fbc578482525b60208901925050505b602086106130035780518252602082612fde91906150fd565b9150602081612fed91906150fd565b9050602086612ffc9190615021565b9550612fc5565b60006001876020036101000a0390508019825116818451168181178552505050879450505050509392505050565b6000826000015190506130448383611c8b565b5061304f8382612849565b50505050565b600080600060208401905060005b845181101561309f5781519250600083111561308557600093505050506130a7565b60208201915060208161309891906150fd565b9050613063565b506001925050505b919050565b6000808214600181146132f7578260018403935060028404841793506004840484179350601084048417935061010084048417935062010000840484179350640100000000840484179350680100000000000000008404841793507001000000000000000000000000000000008404841793506001840193506040517ff8f9cbfae6cc78fbefe7cdc3a1793dfcf4f0e8bbd8cec470b6a28a7a5a3e1efd81527ff5ecf1b3e9debc68e1d9cfabc5997135bfb7a7a3938b7b606b5b4b3f2f1f0ffe60208201527ff6e4ed9ff2d6b458eadcdf97bd91692de2d4da8fd2d0ac50c6ae9a827252361660408201527fc8c0b887b0a8a4489c948c7f847c6125746c645c544c444038302820181008ff60608201527ff7cae577eec2a03cf3bad76fb589591debb2dd67e0aa9834bea6925f6a4a2e0e60808201527fe39ed557db96902cd38ed14fad815115c786af479b7e8324736353433727170760a08201527fc976c13bb96e881cb166a933a55e490d9d56952b8d4e801485467d236242260660c08201527f753a6d1b65325d0c552a4d1345224105391a310b29122104190a11030902010060e082015261010081016040527e818283848586878898a8b8c8d8e8f929395969799a9b9d9e9faaeb6bedeeff7f01000000000000000000000000000000000000000000000000000000000000008082880204818160ff038501510496507f8000000000000000000000000000000000000000000000000000000000000000851161010002870196506000600186038616036132ed576001870196505b50505050506132fc565b600091505b50919050565b600060018261331191906150fd565b83511015613354576040517f08c379a000000000000000000000000000000000000000000000000000000000815260040161334b9061590f565b60405180910390fd5b82828151811061336757613366614acb565b5b602001015160f81c60f81b60f81c905092915050565b600060028261338c91906150fd565b835110156133cf576040517f08c379a00000000000000000000000000000000000000000000000000000000081526004016133c69061590f565b60405180910390fd5b60008260200184015190508060f01c91505092915050565b60006004826133f691906150fd565b83511015613439576040517f08c379a00000000000000000000000000000000000000000000000000000000081526004016134309061590f565b60405180910390fd5b60008260200184015190508060e01c91505092915050565b600060088261346091906150fd565b835110156134a3576040517f08c379a000000000000000000000000000000000000000000000000000000000815260040161349a9061590f565b60405180910390fd5b60008260200184015190508060c01c91505092915050565b6040518061016001604052806134cf613691565b8152602001600067ffffffffffffffff1681526020016000151581526020016134f6613603565b8152602001613503613603565b815260200160608152602001600060070b8152602001600060070b815260200161352b61354b565b815260200161353861354b565b815260200161354561354b565b81525090565b6040518060400160405280606081526020016000151581525090565b60405180610160016040528060608152602001600067ffffffffffffffff16815260200160001515815260200160608152602001600060070b8152602001600060070b8152602001600081526020016000815260200160008152602001600067ffffffffffffffff1681526020016135dd6136a4565b81525090565b60405180604001604052806135f6613653565b8152602001600081525090565b6040518060200160405280606081525090565b604051806060016040528060608152602001600015158152602001600081525090565b604051806040016040528060608152602001606081525090565b604051806040016040528060608152602001600081525090565b604051806040016040528060608152602001600067ffffffffffffffff1681525090565b6040518060200160405280606081525090565b604051806080016040528060608152602001600067ffffffffffffffff1681526020016000151581526020016000151581525090565b600067ffffffffffffffff82169050919050565b6136f7816136da565b82525050565b600060208201905061371260008301846136ee565b92915050565b6000604051905090565b600080fd5b600080fd5b600080fd5b600080fd5b6000601f19601f8301169050919050565b7f4e487b7100000000000000000000000000000000000000000000000000000000600052604160045260246000fd5b61377f82613736565b810181811067ffffffffffffffff8211171561379e5761379d613747565b5b80604052505050565b60006137b1613718565b90506137bd8282613776565b919050565b600067ffffffffffffffff8211156137dd576137dc613747565b5b6137e682613736565b9050602081019050919050565b82818337600083830152505050565b6000613815613810846137c2565b6137a7565b90508281526020810184848401111561383157613830613731565b5b61383c8482856137f3565b509392505050565b600082601f8301126138595761385861372c565b5b8135613869848260208601613802565b91505092915050565b60006020828403121561388857613887613722565b5b600082013567ffffffffffffffff8111156138a6576138a5613727565b5b6138b284828501613844565b91505092915050565b600080fd5b600080fd5b6000602082840312156138db576138da6138bb565b5b6138e560206137a7565b9050600082013567ffffffffffffffff811115613905576139046138c0565b5b61391184828501613844565b60008301525092915050565b6000819050919050565b6139308161391d565b811461393b57600080fd5b50565b60008135905061394d81613927565b92915050565b6000806040838503121561396a57613969613722565b5b600083013567ffffffffffffffff81111561398857613987613727565b5b613994858286016138c5565b92505060206139a58582860161393e565b9150509250929050565b6139b88161391d565b82525050565b60006020820190506139d360008301846139af565b92915050565b6000819050919050565b6139ec816139d9565b81146139f757600080fd5b50565b600081359050613a09816139e3565b92915050565b600060208284031215613a2557613a24613722565b5b6000613a33848285016139fa565b91505092915050565b600081519050919050565b600082825260208201905092915050565b60005b83811015613a76578082015181840152602081019050613a5b565b60008484015250505050565b6000613a8d82613a3c565b613a978185613a47565b9350613aa7818560208601613a58565b613ab081613736565b840191505092915050565b60006020820190508181036000830152613ad58184613a82565b905092915050565b60008115159050919050565b613af281613add565b82525050565b6000604082019050613b0d60008301856139af565b613b1a6020830184613ae9565b9392505050565b613b2a816136da565b8114613b3557600080fd5b50565b600081359050613b4781613b21565b92915050565b600080600060608486031215613b6657613b65613722565b5b6000613b7486828701613b38565b9350506020613b8586828701613b38565b925050604084013567ffffffffffffffff811115613ba657613ba5613727565b5b613bb286828701613844565b9150509250925092565b600063ffffffff82169050919050565b613bd581613bbc565b82525050565b6000606082019050613bf06000830186613bcc565b613bfd60208301856136ee565b8181036040830152613c0f8184613a82565b9050949350505050565b600073ffffffffffffffffffffffffffffffffffffffff82169050919050565b6000613c4482613c19565b9050919050565b613c5481613c39565b82525050565b6000602082019050613c6f6000830184613c4b565b92915050565b613c7e816139d9565b82525050565b6000604082019050613c996000830185613c75565b613ca66020830184613ae9565b9392505050565b600080fd5b60006101608284031215613cc957613cc8613cad565b5b81905092915050565b600060208284031215613ce857613ce7613722565b5b600082013567ffffffffffffffff811115613d0657613d05613727565b5b613d1284828501613cb2565b91505092915050565b6000602082019050613d306000830184613c75565b92915050565b60006040820190508181036000830152613d508185613a82565b9050613d5f6020830184613ae9565b9392505050565b600082825260208201905092915050565b7f7468652066696c65636f696e206d6574686f642074686174207761732063616c60008201527f6c6564206973206e6f742068616e646c65640000000000000000000000000000602082015250565b6000613dd3603283613d66565b9150613dde82613d77565b604082019050919050565b60006020820190508181036000830152613e0281613dc6565b9050919050565b600080fd5b600080fd5b600080fd5b60008083356001602003843603038112613e3557613e34613e09565b5b80840192508235915067ffffffffffffffff821115613e5757613e56613e0e565b5b602083019250600182023603831315613e7357613e72613e13565b5b509250929050565b600082905092915050565b7f4e487b7100000000000000000000000000000000000000000000000000000000600052602260045260246000fd5b60006002820490506001821680613ecd57607f821691505b602082108103613ee057613edf613e86565b5b50919050565b60008190508160005260206000209050919050565b60006020601f8301049050919050565b600082821b905092915050565b600060088302613f487fffffffffffffffffffffffffffffffffffffffffffffffffffffffffffffffff82613f0b565b613f528683613f0b565b95508019841693508086168417925050509392505050565b6000819050919050565b6000613f8f613f8a613f858461391d565b613f6a565b61391d565b9050919050565b6000819050919050565b613fa983613f74565b613fbd613fb582613f96565b848454613f18565b825550505050565b600090565b613fd2613fc5565b613fdd818484613fa0565b505050565b5b8181101561400157613ff6600082613fca565b600181019050613fe3565b5050565b601f8211156140465761401781613ee6565b61402084613efb565b8101602085101561402f578190505b61404361403b85613efb565b830182613fe2565b50505b505050565b600082821c905092915050565b60006140696000198460080261404b565b1980831691505092915050565b60006140828383614058565b9150826002028217905092915050565b61409c8383613e7b565b67ffffffffffffffff8111156140b5576140b4613747565b5b6140bf8254613eb5565b6140ca828285614005565b6000601f8311600181146140f957600084156140e7578287013590505b6140f18582614076565b865550614159565b601f19841661410786613ee6565b60005b8281101561412f5784890135825560018201915060208501945060208101905061410a565b8683101561414c5784890135614148601f891682614058565b8355505b6001600288020188555050505b50505050505050565b61416d838383614092565b505050565b6000813561417f81613b21565b80915050919050565b60008160001b9050919050565b600067ffffffffffffffff6141a984614188565b9350801983169250808416831791505092915050565b60006141da6141d56141d0846136da565b613f6a565b6136da565b9050919050565b6000819050919050565b6141f4826141bf565b614207614200826141e1565b8354614195565b8255505050565b61421781613add565b811461422257600080fd5b50565b600081356142328161420e565b80915050919050565b60008160401b9050919050565b600068ff000000000000000061425d8461423b565b9350801983169250808416831791505092915050565b600061427e82613add565b9050919050565b6000819050919050565b61429882614273565b6142ab6142a482614285565b8354614248565b8255505050565b600080833560016020038436030381126142cf576142ce613e09565b5b80840192508235915067ffffffffffffffff8211156142f1576142f0613e0e565b5b60208301925060018202360383131561430d5761430c613e13565b5b509250929050565b600082905092915050565b60008190508160005260206000209050919050565b601f8211156143765761434781614320565b61435084613efb565b8101602085101561435f578190505b61437361436b85613efb565b830182613fe2565b50505b505050565b6143858383614315565b67ffffffffffffffff81111561439e5761439d613747565b5b6143a88254613eb5565b6143b3828285614335565b6000601f8311600181146143e257600084156143d0578287013590505b6143da8582614076565b865550614442565b601f1984166143f086614320565b60005b82811015614418578489013582556001820191506020850194506020810190506143f3565b868310156144355784890135614431601f891682614058565b8355505b6001600288020188555050505b50505050505050565b61445683838361437b565b505050565b60008160070b9050919050565b6144718161445b565b811461447c57600080fd5b50565b6000813561448c81614468565b80915050919050565b60006144b06144ab6144a68461445b565b613f6a565b61445b565b9050919050565b6000819050919050565b6144ca82614495565b6144dd6144d6826144b7565b8354614195565b8255505050565b60006fffffffffffffffff00000000000000006145008461423b565b9350801983169250808416831791505092915050565b61451f82614495565b61453261452b826144b7565b83546144e4565b8255505050565b6000813561454681613927565b80915050919050565b60007fffffffffffffffffffffffffffffffffffffffffffffffffffffffffffffffff61457b84614188565b9350801983169250808416831791505092915050565b61459a82613f74565b6145ad6145a682613f96565b835461454f565b8255505050565b6000823560016080038336030381126145d0576145cf613e09565b5b80830191505092915050565b60008160481b9050919050565b600069ff0000000000000000006145ff846145dc565b9350801983169250808416831791505092915050565b61461e82614273565b61463161462a82614285565b83546145e9565b8255505050565b600081016000830161464a81856142b2565b61465581838661444b565b5050505060018101602083018061466b81614172565b905061467781846141eb565b50505060018101604083018061468c81614225565b9050614698818461428f565b5050506001810160608301806146ad81614225565b90506146b98184614615565b5050505050565b6146ca8282614638565b5050565b60008101600083016146e08185613e18565b6146eb818386614162565b5050505060018101602083018061470181614172565b905061470d81846141eb565b50505060018101604083018061472281614225565b905061472e818461428f565b505050600281016060830161474381856142b2565b61474e81838661444b565b505050506003810160808301806147648161447f565b905061477081846144c1565b5050506003810160a08301806147858161447f565b90506147918184614516565b5050506004810160c08301806147a681614539565b90506147b28184614591565b5050506005810160e08301806147c781614539565b90506147d38184614591565b505050600681016101008301806147e981614539565b90506147f58184614591565b5050506007810161012083018061480b81614172565b905061481781846141eb565b50505060088101610140830161482d81856145b4565b61483781846146c0565b5050505050565b61484882826146ce565b5050565b6000819050919050565b6148676148628261391d565b61484c565b82525050565b60008160601b9050919050565b60006148858261486d565b9050919050565b60006148978261487a565b9050919050565b6148af6148aa82613c39565b61488c565b82525050565b60006148c18286614856565b6020820191506148d1828561489e565b6014820191506148e18284614856565b602082019150819050949350505050565b600081905092915050565b600061490983856148f2565b93506149168385846137f3565b82840190509392505050565b600061492f8284866148fd565b91508190509392505050565b60008135905061494a8161420e565b92915050565b60006020828403121561496657614965613722565b5b60006149748482850161493b565b91505092915050565b60006020828403121561499357614992613722565b5b60006149a184828501613b38565b91505092915050565b60006040820190506149bf60008301856136ee565b6149cc60208301846139af565b9392505050565b6000819050602082019050919050565b60006149ef82516139d9565b80915050919050565b6000614a0382613a3c565b82614a0d846149d3565b9050614a18816149e3565b92506020821015614a5857614a537fffffffffffffffffffffffffffffffffffffffffffffffffffffffffffffffff83602003600802613f0b565b831692505b5050919050565b7f70726f706f73616c4964206e6f7420617661696c61626c650000000000000000600082015250565b6000614a95601883613d66565b9150614aa082614a5f565b602082019050919050565b60006020820190508181036000830152614ac481614a88565b9050919050565b7f4e487b7100000000000000000000000000000000000000000000000000000000600052603260045260246000fd5b6000614b0582613a3c565b614b0f81856148f2565b9350614b1f818560208601613a58565b80840191505092915050565b6000614b378284614afa565b915081905092915050565b7f706965636520636964206d757374206265206164646564206265666f7265206160008201527f7574686f72697a696e6700000000000000000000000000000000000000000000602082015250565b6000614b9e602a83613d66565b9150614ba982614b42565b604082019050919050565b60006020820190508181036000830152614bcd81614b91565b9050919050565b7f6465616c206661696c656420706f6c69637920636865636b3a2070726f76696460008201527f657220616c726561647920636c61696d65642074686973206369640000000000602082015250565b6000614c30603b83613d66565b9150614c3b82614bd4565b604082019050919050565b60006020820190508181036000830152614c5f81614c23565b9050919050565b7f496e76616c69642043424f520000000000000000000000000000000000000000600082015250565b6000614c9c600c83613d66565b9150614ca782614c66565b602082019050919050565b60006020820190508181036000830152614ccb81614c8f565b9050919050565b614cdb82613a3c565b67ffffffffffffffff811115614cf457614cf3613747565b5b614cfe8254613eb5565b614d09828285614005565b600060209050601f831160018114614d3c5760008415614d2a578287015190505b614d348582614076565b865550614d9c565b601f198416614d4a86613ee6565b60005b82811015614d7257848901518255600182019150602085019450602081019050614d4d565b86831015614d8f5784890151614d8b601f891682614058565b8355505b6001600288020188555050505b505050505050565b7f4461746143617020526563656976656421000000000000000000000000000000600082015250565b6000614dda601183613d66565b9150614de582614da4565b602082019050919050565b60006020820190508181036000830152614e0981614dcd565b9050919050565b600081905092915050565b7f040a000000000000000000000000000000000000000000000000000000000000600082015250565b6000614e51600283614e10565b9150614e5c82614e1b565b600282019050919050565b6000614e7282614e44565b9150614e7e828461489e565b60148201915081905092915050565b60008082015250565b6000614ea3600183614e10565b9150614eae82614e8d565b600182019050919050565b6000614ec482614e96565b9150614ed08284614afa565b915081905092915050565b6000815250565b6000614eed82614edb565b600182019150614efd8284614afa565b915081905092915050565b6000614f148284614856565b60208201915081905092915050565b6000604082019050614f3860008301856139af565b614f4560208301846139af565b9392505050565b614f55816141bf565b82525050565b600060c082019050614f7060008301896136ee565b614f7d60208301886139af565b614f8a60408301876136ee565b614f9760608301866136ee565b8181036080830152614fa98185613a82565b9050614fb860a0830184614f4c565b979650505050505050565b7f4e487b7100000000000000000000000000000000000000000000000000000000600052600160045260246000fd5b7f4e487b7100000000000000000000000000000000000000000000000000000000600052601160045260246000fd5b600061502c8261391d565b91506150378361391d565b925082820390508181111561504f5761504e614ff2565b5b92915050565b60006150608261391d565b91507fffffffffffffffffffffffffffffffffffffffffffffffffffffffffffffffff820361509257615091614ff2565b5b600182019050919050565b7f4e487b7100000000000000000000000000000000000000000000000000000000600052601260045260246000fd5b60006150d78261391d565b91506150e28361391d565b9250826150f2576150f161509d565b5b828206905092915050565b60006151088261391d565b91506151138361391d565b925082820190508082111561512b5761512a614ff2565b5b92915050565b600061513c8261445b565b91506151478361445b565b92508282039050677fffffffffffffff81137fffffffffffffffffffffffffffffffffffffffffffffffff80000000000000008212171561518b5761518a614ff2565b5b92915050565b6000819050919050565b6151a481615191565b81146151af57600080fd5b50565b6000815190506151c18161519b565b92915050565b6000815190506151d681613b21565b92915050565b60006151ef6151ea846137c2565b6137a7565b90508281526020810184848401111561520b5761520a613731565b5b615216848285613a58565b509392505050565b600082601f8301126152335761523261372c565b5b81516152438482602086016151dc565b91505092915050565b60008060006060848603121561526557615264613722565b5b6000615273868287016151b2565b9350506020615284868287016151c7565b925050604084015167ffffffffffffffff8111156152a5576152a4613727565b5b6152b18682870161521e565b9150509250925092565b6152c481615191565b82525050565b60006020820190506152df60008301846152bb565b92915050565b7f696e76616c6964206d616a20286578706563746564204d616a546167206f722060008201527f4d616a42797465537472696e6729000000000000000000000000000000000000602082015250565b6000615341602e83613d66565b915061534c826152e5565b604082019050919050565b6000602082019050818103600083015261537081615334565b9050919050565b7f696e76616c6964206d616a20286578706563746564204d616a41727261792900600082015250565b60006153ad601f83613d66565b91506153b882615377565b602082019050919050565b600060208201905081810360008301526153dc816153a0565b9050919050565b7f696e76616c6964206d616a20286578706563746564204d616a556e7369676e6560008201527f64496e7429000000000000000000000000000000000000000000000000000000602082015250565b600061543f602583613d66565b915061544a826153e3565b604082019050919050565b6000602082019050818103600083015261546e81615432565b9050919050565b7f696e76616c6964206d616a20286578706563746564204d616a4f746865722900600082015250565b60006154ab601f83613d66565b91506154b682615475565b602082019050919050565b600060208201905081810360008301526154da8161549e565b9050919050565b7f696e76616c6964206d616a20286578706563746564204d616a5465787453747260008201527f696e672900000000000000000000000000000000000000000000000000000000602082015250565b600061553d602483613d66565b9150615548826154e1565b604082019050919050565b6000602082019050818103600083015261556c81615530565b9050919050565b7f696e76616c6964206d616a20286578706563746564204d616a5369676e65644960008201527f6e74206f72204d616a556e7369676e6564496e74290000000000000000000000602082015250565b60006155cf603583613d66565b91506155da82615573565b604082019050919050565b600060208201905081810360008301526155fe816155c2565b9050919050565b60006156108261391d565b915061561b8361391d565b92508282026156298161391d565b915082820484148315176156405761563f614ff2565b5b5092915050565b7f63616e6e6f742068616e646c652068656164657273207769746820657874726160008201527f203e203237000000000000000000000000000000000000000000000000000000602082015250565b60006156a3602583613d66565b91506156ae82615647565b604082019050919050565b600060208201905081810360008301526156d281615696565b9050919050565b7f696e76616c69642063626f720000000000000000000000000000000000000000600082015250565b600061570f600c83613d66565b915061571a826156d9565b602082019050919050565b6000602082019050818103600083015261573e81615702565b9050919050565b60008160011c9050919050565b6000808291508390505b600185111561579c5780860481111561577857615777614ff2565b5b60018516156157875780820291505b808102905061579585615745565b945061575c565b94509492505050565b6000826157b55760019050615871565b816157c35760009050615871565b81600181146157d957600281146157e357615812565b6001915050615871565b60ff8411156157f5576157f4614ff2565b5b8360020a91508482111561580c5761580b614ff2565b5b50615871565b5060208310610133831016604e8410600b84101617156158475782820a90508381111561584257615841614ff2565b5b615871565b6158548484846001615752565b9250905081840481111561586b5761586a614ff2565b5b81810290505b9392505050565b60006158838261391d565b915061588e8361391d565b92506158bb7fffffffffffffffffffffffffffffffffffffffffffffffffffffffffffffffff84846157a5565b905092915050565b7f736c6963696e67206f7574206f662072616e6765000000000000000000000000600082015250565b60006158f9601483613d66565b9150615904826158c3565b602082019050919050565b60006020820190508181036000830152615928816158ec565b905091905056fea26469706673582212202012625f7a0aae035e5fc23e4b15e89822caa18c936d8fcf54bdfb0d3e8ff78964736f6c63430008110033",
  "linkReferences": {},
  "deployedLinkReferences": {}
}